:100000000C945C000C9484000C9484000C94840088
:100010000C9484000C9484000C9484000C94840050
:100020000C9484000C9484000C9484000C94840040
:100030000C9484000C9484000C9484000C94840030
:100040000C9499030C9484000C9476050C94840011
:100050000C9484000C9484000C9484000C94840010
:100060000C9484000C948400000024272A000025AE
:10007000282B000023262904040404040404040299
:100080000202020202030303030303010204081035
:100090002040800102040810200102040810200002
:1000A0000000070002010000030406000000000039
:1000B00000000000AF01980311241FBECFEFD4E071
:1000C000DEBFCDBF11E0A0E0B1E0E6E0FEE002C09F
:1000D00005900D92AC36B107D9F712E0ACE6B1E06D
:1000E00001C01D92AA30B107E1F710E0C8EBD0E0E3
:1000F00004C02297FE010E94FE06C43BD107C9F747
:100100000E94C1020C9402070C9400000F931F93ED
:100110008C01FC01718360835383428360E08081A2
:100120000E94470461E0F80182810E9447041F9108
:100130000F9108950F931F938C01FC0171836083CD
:100140005383428360E080810E94470461E0F801AC
:1001500082810E9447041F910F9108951F93CF93AE
:10016000DF939B01EA01CB0185579F4FFC0114915E
:1001700029583F4FF9018491A0E0B0E0482F55275E
:1001800021C09A012E583F4FF9018491E82FFF2793
:100190008081612F7727992786239723892B39F030
:1001A0008081992786239723892B59F0F9CFF9016C
:1001B0008491E82FFF278081992786239723892B15
:1001C000B1F31196AC17BD07E4F2DF91CF911F9107
:1001D0000895AF92BF92CF92DF92EF92FF920F936A
:1001E0001F93CF93DF938C01A62EB42EC22E21E055
:1001F000E22EF12C52C0F8016081718141E050E0A3
:10020000C8010E94AE008A2D9927CE19DF0902C0CD
:1002100095958795CA95E2F791E0D92ED822C3E04B
:10022000D0E06D2DF80182810E94B10480E293E05C
:100230000E94F80360E0F80182810E94B10482EF1D
:1002400096E00E94F803219761F7CC2019F5F80198
:100250006081718141E050E0C8010E94AE00C0E0C1
:10026000D0E060E0DD2009F461E0F80182810E94C5
:10027000B10480E293E00E94F80360E0F80182811B
:100280000E94B10482EF96E00E94F8032196C330E9
:10029000D10539F70894E11CF11CCB2DDD27CE15D3
:1002A000DF050CF0A8CFDF91CF911F910F91FF9048
:1002B000EF90DF90CF90BF90AF900895CF92DF92F4
:1002C000EF92FF920F931F93CF93DF93EC01E62EF3
:1002D000F42E690100E010E014C021E044E06EE07B
:1002E000CE010E94E90020E044E06E2DCE010E9484
:1002F000E90020E045E06F2DCE010E94E9000F5F8C
:100300001F4F0C151D054CF38BE0F81651F089E0DA
:10031000F81639F06881798146E050E0CE010E94FC
:10032000AE00DF91CF911F910F91FF90EF90DF9082
:10033000CF90089582E090E00895019779F46F5F7F
:100340007F4F61F4409167015091680160916501B0
:10035000709166018DE791E00E949A0008956FEF19
:100360007FEF81E090E00E949D01089561E08DE0C3
:100370000E94B10468EE73E080E090E00E94D60332
:1003800060E08DE00E94B104089581E891E00E9450
:100390008E03882309F4BCC081E891E00E948B039E
:1003A00090937B0180937A010A9709F0B1C0109273
:1003B00079011092780181E891E00E948E038823F0
:1003C000D9F081E891E00E948B039C0190937B011E
:1003D00080937A018A309105B1F00D97A1F0809158
:1003E000780190917901FC01E459FE4F2083019638
:1003F00090937901809378018091780190917901AF
:100400000A9744F4D8CF80917801909179010A97A6
:100410000CF474C081E891E00E94880365E571E006
:100420008CE691E00E948F06892B09F047C060E0BE
:1004300071E081E891E00E9479036CE671E081E867
:1004400091E00E947D0380917C018823E1F40E9469
:10045000B6012091690130916A014CE066E08DE7B8
:1004600091E00E945E012091690130916A0145E0AE
:1004700066E08DE791E00E945E0181E080937C015F
:100480006EE071E023C00E94B601209169013091B5
:100490006A014CE066E08DE791E00E945E012091E8
:1004A000690130916A0147E066E08DE791E00E94C2
:1004B0005E0110927C0169E171E008C06CE671E0B8
:1004C00081E891E00E94790365E271E081E891E0C2
:1004D0000E947D0361E0809163010E94B10468EB9A
:1004E0007BE080E090E00E94D60381E891E00E94EA
:1004F000880360E0809163010E94B1041092790149
:100500001092780164EF71E080E090E00E94D603E1
:1005100008950F931F9301E811E040E659E060E071
:1005200070E0C8010E9492032091690130916A0134
:1005300041E066E08DE791E00E945E0160E080911D
:1005400065010E94470461E0809167010E944704B1
:1005500061E0809163010E94470461E08091610144
:100560000E94470460E0809163010E94B1040E94F0
:10057000B60165E371E0C8010E947D031F910F91F0
:1005800008950E9405040E9489020E94C501FDCFC2
:1005900008950895CB01BA013327442755270E94B7
:1005A000BC0508952AE00E94CA020895AB0166279F
:1005B00077270E94D2020895862F0E94B4050895DD
:1005C000862F0E94B40508950F931F938C016DE050
:1005D0000E94E0026AE0C8010E94E0021F910F91B0
:1005E00008950F931F938C010E94D202C8010E94AC
:1005F000E4021F910F9108950F931F938C010E94A5
:10060000D602C8010E94E4021F910F9108950F9332
:100610001F938C010E94DC02C8010E94E4021F911A
:100620000F9108950F931F938C010E94E002C8015F
:100630000E94E4021F910F910895EF92FF920F9391
:100640001F93CF93DF93EC017A018B0177FF0BC0EF
:100650006DE20E94E00210950095F094E094E11C98
:10066000F11C011D111D2AE0B801A701CE010E9455
:10067000CA02DF91CF911F910F91FF90EF900895E3
:100680000F931F938C010E941D03C8010E94E40276
:100690001F910F9108952115310521F4642F0E94B7
:1006A000E00208952A30310519F40E941D030895CF
:1006B0000E94CA0208950F931F938C010E944B035E
:1006C000C8010E94E4021F910F910895AB016627B3
:1006D00057FD6095762F0E941D0308950F931F9379
:1006E0008C010E946603C8010E94E4021F910F91D1
:1006F0000895CB010E94820608950F931F938C01E9
:100700000E947903C8010E94E4021F910F9108958D
:100710000E946D0508950E944E0508950E943D05B2
:1007200099270895CB01BA010E94FC040895089509
:1007300008951F920F920FB60F9211248F939F93DB
:10074000AF93BF938091860190918701A09188011A
:10075000B09189010196A11DB11D809386019093EE
:100760008701A0938801B0938901BF91AF919F91B8
:100770008F910F900FBE0F901F901895609186017A
:1007800070918701809188019091890127E0660F1F
:10079000771F881F991F2A95D1F72DE730E040E099
:1007A00050E00E94AB06CA01B9010895AF92BF9212
:1007B000CF92DF92EF92FF920F931F935B016C0138
:1007C0000E94BE037B018C010E94BE036E197F094B
:1007D000800B910B6A157B058C059D05A8F31F9175
:1007E0000F91FF90EF90DF90CF90BF90AF90089562
:1007F000019751F0880F991F880F991F02972FB703
:10080000F8940197F1F72FBF08957894109286011C
:1008100010928701109288011092890184B582603C
:1008200084BD84B5816084BD85B5826085BD85B594
:10083000816085BDEEE6F0E0808181608083E1E843
:10084000F0E0808182608083808181608083E0E845
:10085000F0E0808181608083E1EBF0E08081846062
:100860008083E0EBF0E0808181608083EAE7F0E064
:1008700080818460808380818260808380818160C8
:1008800080838081806880831092C1000895282F22
:100890003327C90185579F4FFC01949129583F4F39
:1008A000F9018491882381F0E82FFF27E859FF4F51
:1008B000E491FF27662329F4808190958923808322
:1008C00008958081892B80830895482F5527CA0178
:1008D00081569F4FFC012491CA0185579F4FFC010F
:1008E000949149585F4FFA013491332319F480E011
:1008F00090E00895222331F1233021F4809180008B
:100900008F7705C0243031F4809180008F7D8093F3
:10091000800018C0213019F484B58F7704C02230CC
:1009200021F484B58F7D84BD0DC0263021F48091E3
:10093000B0008F7705C0273029F48091B0008F7DFB
:100940008093B000E32FFF27EE58FF4FE491FF277D
:10095000808120E030E0892311F021E030E0C901FE
:100960000895482F5527CA0181569F4FFC012491B5
:10097000CA0185579F4FFC01949149585F4FFA0176
:1009800034913323C1F1222331F1233021F48091BA
:1009900080008F7705C0243031F4809180008F7DF6
:1009A0008093800018C0213019F484B58F7704C07B
:1009B000223021F484B58F7D84BD0DC0263021F412
:1009C0008091B0008F7705C0273029F48091B00066
:1009D0008F7D8093B000E32FFF27E359FF4FE49111
:1009E000FF27662329F480819095892380830895C9
:1009F0008081892B80830895EF92FF920F931F933C
:100A00007B018C0122E030E040E050E00E94CD0606
:100A1000205C3D4B404F5F4FCA01B901A8019701CF
:100A20000E94CD062150304040405040BB2757FD2A
:100A3000BA95A52F942F832F2F5F3F4F4F4F5F4FB6
:100A40008093C50021502093C400E1ECF0E0808148
:100A500080618083808188608083808180688083DA
:100A60001F910F91FF90EF900895982F8091C000F3
:100A700085FFFCCF9093C6000895809182019091EC
:100A800083012091840130918501821B930B805852
:100A90009F4F60E870E00E9498060895409184019D
:100AA000509185018091820190918301841795076F
:100AB00019F48FEF9FEF0895FA01E657FE4F20815A
:100AC000CA01019660E870E00E9498069093850143
:100AD00080938401822F99270895809184019091B9
:100AE0008501909383018093820108951F920F9254
:100AF0000FB60F9211242F933F934F935F936F93F1
:100B00007F938F939F93AF93BF93EF93FF93409106
:100B1000C600E0918201F0918301CF01019660E867
:100B200070E00E9498069C0180918401909185015B
:100B30002817390739F0E657FE4F40833093830179
:100B400020938201FF91EF91BF91AF919F918F917F
:100B50007F916F915F914F913F912F910F900FBEB9
:100B60000F901F9018950895982F8091C00085FFD1
:100B7000FCCF9093C60008952F923F924F925F92C0
:100B80006F927F928F929F92AF92BF92CF92DF929D
:100B9000EF92FF920F931F93CF93DF93CDB7DEB702
:100BA000A0970FB6F894DEBF0FBECDBF6B017C01DE
:100BB00029013A01611571058105910541F4809182
:100BC000C00085FFFCCF80E38093C60041C088242D
:100BD000992454011E010894211C311C8101080D27
:100BE000191DC701B601A30192010E94AB06F801CD
:100BF00060830894811C911CA11CB11CC701B60123
:100C0000A30192010E94AB0669017A012115310509
:100C10004105510519F79E012F5F3F4F14C00894FD
:100C200081089108A108B108F901E80DF91DE081DA
:100C3000EA3010F4E05D01C0E95C8091C00085FFFE
:100C4000FCCFE093C60081149104A104B10439F7EC
:100C5000A0960FB6F894DEBF0FBECDBFDF91CF9147
:100C60001F910F91FF90EF90DF90CF90BF90AF90CA
:100C70009F908F907F906F905F904F903F902F90BC
:100C8000089520E130E040E050E00E94BC05089566
:100C900028E030E040E050E00E94BC05089522E0EA
:100CA00030E040E050E00E94BC0508958091C00013
:100CB00085FFFCCF8AE08093C6000895EF92FF92F3
:100CC0000F931F937B018C0197FF0FC08091C00091
:100CD00085FFFCCF8DE28093C60010950095F094BF
:100CE000E094E11CF11C011D111D2AE030E040E000
:100CF00050E0C801B7010E94BC051F910F91FF9001
:100D0000EF900895FC0107C08091C00085FFFCCFE3
:100D100031969093C60090819923B1F70895FB0115
:100D2000DC018D91019080190110D9F3990B089580
:100D300097FB092E07260AD077FD04D049D006D0AC
:100D400000201AF4709561957F4F0895F6F79095FD
:100D500081959F4F0895A1E21A2EAA1BBB1BFD018E
:100D60000DC0AA1FBB1FEE1FFF1FA217B307E4078A
:100D7000F50720F0A21BB30BE40BF50B661F771FE2
:100D8000881F991F1A9469F76095709580959095C2
:100D90009B01AC01BD01CF01089597FB092E0526EB
:100DA0000ED057FD04D0D7DF0AD0001C38F4509580
:100DB0004095309521953F4F4F4F5F4F0895F6F77F
:100DC00090958095709561957F4F8F4F9F4F0895B7
:100DD000AA1BBB1B51E107C0AA1FBB1FA617B70761
:100DE00010F0A61BB70B881F991F5A95A9F780957D
:100DF0009095BC01CD010895EE0FFF1F0590F49171
:060E0000E02D0994FFCF74
:100E0600546167206D6174636865733A20004C69AC
:100E160067687473204F4E2E004C696768747320A0
:100E26004F46462E0020646F6573206E6F74206DEA
:100E36006174636800536574757020636F6D706CC0
:100E46006574652C20616C6C206C6967687473200E
:100E56004F46462E00304630333033373138350072
:0C0E6600000D000200090008000100005F
:00000001FF
